:100B8300C1000149000128000127000245000002BD
:100B930025000001248C023F0000023500000A29D1
:100BA3000000000000000000000001441C01413768
:100BB30001235002420000024700000237000002F6
:100BC30039000002330000023D0000023B00000236
:070BD3004A000002210000AE
:10079700E4FDFF120F19EFF46008E4FDFF120F19D3
:1007A7008F447D01E4FF120F19EFF460097D01E426
:1007B700FF120F198F417D02E4FF120F19EFF4604A
:1007C700097D02E4FF120F198F247D03E4FF120F46
:1007D70019EFF460097D03E4FF120F198F23E4F585
:1007E700937594FF7580FFF591F5927590FFF595D8
:1007F700F59675A0FFF5B175B2F075B00FC2B7C227
:10080700B6752850752750F525852426438E8075A3
:0F0817008911758CFF758A83D28CD2A9D2AF223A
:100F3F00C3EE64809480400122C3E49FFFE49EFED1
:010F4F00227F
:1004E600E5A0753F00F54025E0F540E53F33F53FD3
:1004F600E59054802540F540E4353FF53F5401FE34
:10050600E5408EF012020C061D00000607000105EC
:10051600EB000205F9000305CF000405DD00060522
:10052600B3000805C1000C0599001005A5001805C3
:10053600890020059100300579004005810060059D
:10054600690080057100C005590100056101800040
:100556000006247535FF7536F4804A7535FF753605
:10056600F580427535FF7536F7803A7535FF753675
:10057600F980327535FF7536FB802A7535FF75367D
:10058600FD80227535FF7536FE801A74FFF535F548
:10059600368012E4F535F536AE3BAF3CFC806E7521
:1005A6003500753601AE3BAF3C7C0080607535008A
:1005B600753602AE3BAF3C7C008052753500753611
:1005C60003AE3BAF3C7C008044753500753605AE06
:1005D6003BAF3C7C008036753500753607AE3BAFC9
:1005E6003C7C008028753500753609AE3BAF3C7CF7
:1005F60000801A75350075360BAE3BAF3C7C00802B
:100606000C75350075360CAE3BAF3C7C007D021296
:1006160001C88E3B8F3C22853135853236228531A5
:0D06260035853236053CE53C7002053B226F
:1006ED00E4F54CC3E5369532FFE5359531FE120F35
:1006FD003FC3EF940BEE64809480400685313585C1
:10070D003236C3E5369532FFE5359531FEAD417C88
:10071D00001201B6AA06AB07AF447E00AC35AD366C
:10072D001201B6EF2BFFEE3AFE7C007D0A1201C8D6
:10073D007C00EF2524F526EC3EF525C3E526945ADD
:10074D00E52564809480500675250075265AD3E5FD
:10075D002694AAE5256480948040067525007526AB
:10076D00AAE4F54CE54C25E0242BF8E6FE08E6FF5F
:10077D00E54C25E02429F8A60608A607054CE54C0E
:09078D00B404E1853531853632F2
:010796002240
:100C7900852328852327C3E53C941EE53B6480949E
:100C8900804005E4F528F527D3E528648094E440FD
:100C990003752864C3E528648094805003E4F5282B
:100CA900D3E527648094E44003752764C3E527648A
:090CB9008094805003E4F5272229
:100D3D00E4FDFF120F507F057E00120EEAAB44E476
:100D4D00FDFF120F2C7F057E00120EEAAB417D01D7
:100D5D00E4FF120F2C7F057E00120EEAAB247D02FC
:050D6D00E4FF020F2C61
:100B2000C3E5229478E5219400500A0522E522705D
:100B30000905218005E4F521F522D3E522941EE57F
:100B40002194004016D3E522945AE52194004014E4
:100B5000D3E5229478E52194005009E52615267006
:100B600021152522D3E522941EE52194004013D3BC
:100B7000E522945AE521940050080526E5267002E6
:020B8000052549
:010B82002250
:100EAC00120797120CC2120A347590FF2094051287
:100EBC000B2080091204E61206ED120C793000FDAD
:040ECC00C20080E8F8
:03000300020F7079
:0D0F7000C0E00538E53870020537D0E032EA
:03001300020F7D5C
:0D0F7D00C0E0053AE53A70020539D0E032D7
:03000B00020633B7
:10063300C0E0C0F0C0D075D008758CFF758A830503
:10064300490546E54670020545D3E549648094E4CF
:100653004003754901D3E54694F2E54564809483EC
:100663004010754500754601D2000543E54370020D
:100673000542C3E5496480F8E5286480984004D2C4
:10068300B78002C2B7C3E5496480F8E52764809860
:100693004004D2B68002C2B6C3E5269546E545645A
:1006A30080F8E5256480984004D2B58002C2B5C3C2
:1006B300E5439405E542648094804027E538253A74
:1006C300FFE5373539FE7C007D021201C88E478F66
:1006D30048753700753800753900753A0075420062
:0A06E300754300D0D0D0F0D0E03213
:100D72002A00736572766F5F503A00736572766F00
:100D82005F443A00736572766F5F6D6964007370D9
:100D92006565645F657870006672657175656E740D
:030DA2000020002E
:100A34007BFF7A0D7972E4FDFF120E867BFF7A0D3F
:100A44007974E4FD7F0A120E86AB44E4FD7F411203
:100A54000DD77BFF7A0D797D7D017F0A120E86AB5F
:100A6400417D017F41120DD77BFF7A0D79867D028E
:100A74007F0A120E86AB247D027F41120DD77BFFC5
:100A84007A0D79907D037F0A120E86AB237D037F56
:100A940041120DD77BFF7A0D799A7D057F0A120EDC
:0A0AA40086AB487D057F41020DD7A7
:100AAE008C1E8D1FEF14602614604324027062E5C5
:100ABE001F2544F544E4FD7F41120BDD7BFF7A0DCB
:100ACE007972E4FDFF120E86AB44E4FD803EE51F15
:100ADE002541F5417D017F41120BDD7BFF7A0D79BA
:100AEE00727D01E4FF120E86AB417D01801EE51F73
:100AFE002524F5247D027F41120BDD7BFF7A0D79D3
:100B0E00727D02E4FF120E86AB247D027F41120D30
:020B1E00D722DC
:1009B500E4F557A290B350387F08FE120ED0A290EE
:1009C500B3502DA290B340FB7BFF7A0D79A3AD58B0
:1009D500E4FF120E86E558C39402500405588003BF
:1009E500E4F5587BFF7A0D7972AD58E4FF120E8657
:1009F500A291B3501A7F087E00120ED0A291B35077
:100A05000EA291B340FB7D017C00AF58120AAEA245
:100A150092B3501A7F087E00120ED0A292B3500EE8
:0E0A2500A292B340FB74FFFDFCAF58120AAE64
:010A330022A0
:10028E0089F200FF01F9FF00FC00FF0000070404E3
:10029E00020102040104070011F6000424E42424E0
:1002AE00FF0506000007020102030101010207001B
:1002BE000000000000000000002F000000000700FA
:1002CE00070000147F147F1400242A7F2A12006274
:1002DE006408132300364955225000000503000020
:1002EE0000001C224100000041221C000014083EA8
:1002FE0008140008083E0808000000A0600000086E
:10030E0008080808000060600000002010080402C1
:10031E00003E5149453E0000427F4000004261517F
:10032E004946002141454B31001814127F10002719
:10033E0045454539003C4A494930000171090503DC
:10034E0000364949493600064949291E000036360D
:10035E000000000056360000000814224100001470
:10036E00141414140000412214080002015109064D
:10037E0000324959513E007C1211127C007F4949CE
:10038E004936003E41414122007F4141221C007FFF
:10039E0049494941007F09090901003E4149497A0D
:1003AE00007F0808087F0000417F41000020404187
:1003BE003F01007F08142241007F40404040007FF3
:1003CE00020C027F007F0408107F003E4141413E37
:1003DE00007F09090906003E4151215E007F09197F
:1003EE0029460046494949310001017F0101003F7C
:1003FE004040403F001F2040201F003F4038403FFC
:10040E00006314081463000708700807006151495F
:10041E00454300007F41410000552A552A550000F2
:10042E0041417F0000040201020400404040404070
:10043E00000001020400002054545478007F484408
:10044E00443800384444442000384444487F00383F
:10045E005454541800087E0901020018A4A4A47C68
:10046E00007F080404780000447D40000040808432
:10047E007D00007F102844000000417F4000007C7A
:10048E0004180478007C0804047800384444443886
:10049E0000FC242424180018242418FC007C0804D2
:1004AE00040800485454542000043F444020003CAB
:1004BE004040207C001C2040201C003C4030403C32
:1004CE00004428102844001CA0A0A07C00446454C2
:0804DE004C441414141414140E
:0E0F6100E4FFFE0FBF00010EBE01F8BFF4F565
:010F6F00225F
:100ED000EF4E60157DE87C03ED1DAA0470011C4AED
:090EE00070F6EF1F70EA1E80E7B6
:010EE90022E6
:100CC200C280120F61D280C281120F61D281120FD3
:100CD20061E4FD7F21120DB1E4FD7FB8120DB1E494
:100CE200FD7F06120DB1E4FD7F13120DB1E4FD7F0D
:100CF20020120DB1120E34E4FD7F0C120DB1C2812F
:010D020022CE
:100E3400E4FD7F0C120DB1E4FD7F80120DB1E4F5E9
:100E44004CF54D7D01E4FF120DB1054DE54D7002E9
:0B0E5400054CC394F8E54C940140E805
:010E5F002270
:040BDD008F518D5255
:100BE100E4FD7F0C120DB1E4FD7F80120DB1E552E1
:100BF10024FFFFE434FFFE7C007D541201B6EF2593
:100C010051F554EC3EF553E55275F054A4FFC3E59C
:100C1100549FE55395F050117D01E4FF120DB1058C
:090C210054E55470E2055380DE35
:010C2A0022A7
:100F04008F4FED4440FFE4FD120DB1E54F4480FFE7
:050F1400E4FD020DB137
:020E60008F4FB2
:100E6200E4F55075F006E54FA424FEF582E5F03472
:100E720001F583E5822550120DA50550E550C39476
:030E82000640E047
:010E8500224A
:100E86008B4C8A4D894E120F04AB4CAA4DA94E12BB
:100E9600019DFF6010120E607401254EF54EE4357B
:060EA6004DF54D80E42231
:060935008F108D118B12E2
:10093B00120F04E4F516E516C39513506CE4F51786
:10094B00E51275F002A4FFC3E5179FE5F06480F88C
:10095B007480985040E5176512701EE5167008E517
:10096B001104FDAF10800FE51225158516F0A42597
:10097B0010FFE51104FD120F04E514251675F01890
:10098B00A4248EF582E43402F583E5822517120D3B
:10099B00A5051780AB0516E51225158516F0A425C0
:0909AB0010FFAD11120F04808D44
:0109B4002220
:0C0DA500F582E43583F583E493FF7D01C3
:100DB100C281ED7004C2828002D282E4FEEF30E78C
:100DC10004D2838002C283C284EF25E0FFD2840E65
:050DD100BE08EAD2811A
:010DD60022FA
:100E0600AE55AF561201C87C007D0A1201C8AF0567
:020E1600AC0727
:100E1800E4FB75F006ECA4241EF582E5F03403F536
:0B0E280083E5822B120DA50BBB06E733
:010E3300229C
:100DD7008B4C120F04E54C75F0648475F00A84AFF0
:100DE700F0120E16E54C75F06484E5F075F00A8490
:0F0DF700FF120E16E54C75F00A84AFF0020E16CF
:100C2B008A558B56120F04AE55AF567C277D10128A
:100C3B0001C8120E167C037DE8120E067C007D6443
:100C4B00120E06AE55AF567C007D641201C87E00B5
:100C5B007F0ACFCDCFCECCCE1201C8120E16AE5519
:0E0C6B00AF567C007D0A1201C8AF05020E16BE
:1008B200120F04AF1DAE1CAD1BAC1A12011C7C0042
:1008C2007D64120E0AAF1DAE1CAD1BAC1A12011CC8
:1008D2007C007D641201C87E007F0ACFCDCFCECCD2
:1008E200CE1201C8120E16AF1DAE1CAD1BAC1A12F1
:1008F200011C120E0D7F2E120E60E4FFFE7D207C85
:1009020041AB1DAA1CA91BA81A12001612011C1227
:100912000E0DE4FFFE7DC87C42AB1DAA1CA91BA8DC
:100922001A12001612011C7C007D0A1201C8AF05C2
:03093200020E169C
:100D03008B59120F04E559C4540FFFC3940A5005BD
:100D1300EF24308007E559C4540F2437FF120E60C7
:100D2300E559540FFFC3940A5005EF24308006E5BC
:0A0D330059540F2437FF120E6022FE
:020BDA00C10157
:100EEA00EF4E60157DE87C03ED1DAA0470011C4AD3
:090EFA0070F6EF1F70EA1E80E79C
:010F030022CB
:100F19008FC38DC475C78275C50175C65A75C6A5B7
:020F2900AFC255
:010F2B0022A3
:100F2C008BC28FC38DC475C78275C50275C65A75C1
:030F3C00C6A52225
:100F50008FC38DC475C78275C50375C65A75C6A57E
:010F6000226E
:10001600EC4D6011E8497017ED33EC3304600DE4E4
:10002600FCFFFEFD22E933E8330470F80201881272
:10003600015358046009E4CC248150062850090273
:10004600019228400302018FC0E0EB4A7044B98058
:1000560006D0E0FB02017EEF4E701CBD8008EBFF70
:10006600EAFEE9FD80EBE98DF0A4FEE5F00200FF73
:10007600E9CDF9EAFEEBFFEF89F0A4FCE5F0CE89C5
:10008600F0A42EFFE435F0CD89F0A42DFEE435F082
:100096008067EF4E7005BD80D780C3EF8BF0A4ACB0
:1000A600F0EE8BF0A42CFCE435F0F8EF8AF0A42CEB
:1000B600E5F038FCE433CB8DF0A42CFCE5F03BF8FE
:1000C600EE8AF0A42CFCE5F038F8E433CF89F0A4EE
:1000D6002CFCE5F038CF3400CE89F0A42FFFE5F0F4
:1000E6003EFEE433C98DF0A42EFEE5F039CD8AF04C
:1000F600A42FFFE5F03EFEE43DFD33D0E0FB5007C4
:100106000BBB000F020192EC2CFCEF33FFEE33FE2B
:06011600ED33FD02016A59
:10011C00EDD2E7CD33EC3392D524814006E4FFFEDB
:10012C00FDFC22FCE4CFCECDCC24E0501174FF803A
:10013C00EDC3CC13CCCD13CDCE13CECF13CF0470D7
:07014C00F030D5DE0201FED8
:10015300E9D2E7C933E833F892D5EDD2E7CD33ECF2
:0701630033FC5002B2D5226B
:10016A00EC30E7100FBF000C0EBE00080DBD0004F6
:10017A000BEB6014A2D5EB13FCED92E7FD2274FFA2
:10018A00FCFDFEFF22E480F8A2D574FF13FC7D80FB
:03019A00E480EF0F
:03000000020826CD
:0C082600787FE4F6D8FD75815902086D5A
:10019D00BB010689828A83E0225002E722BBFE0260
:0901AD00E32289828A83E4932293
:1001B600EF8DF0A4A8F0CF8CF0A428CE8DF0A42E5D
:0201C600FE2217
:1001C800C2D5EC30E709B2D5E4C39DFDE49CFCEE52
:1001D80030E715B2D5E4C39FFFE49EFE120239C38F
:1001E800E49DFDE49CFC800312023930D507C3E48A
:0601F8009FFFE49EFE22C1
:0E01FE00C3E49FFFE49EFEE49DFDE49CFC2212
:10020C00D083D082F8E4937012740193700DA3A381
:10021C0093F8740193F5828883E473740293B5F0B8
:0D022C00067403936860E9A3A3A3A380D820
:10083200020EACE493A3F8E493A34003F68001F222
:1008420008DFF48029E493A3F85407240CC8C333C7
:10085200C4540F4420C8834004F456800146F6DF96
:10086200E4800B0102040810204080900B83E47E98
:10087200019360BCA3FF543F30E509541FFEE4938B
:10088200A360010ECF54C025E060A840B8E493A352
:10089200FAE493A3F8E493A3C8C582C8CAC583CA7D
:1008A200F0A3C8C582C8CAC583CADFE9DEE780BE35
:010BDC000018
:10023900BC000BBE0029EF8DF084FFADF022E4CCA9
:10024900F875F008EF2FFFEE33FEEC33FCEE9DEC72
:10025900984005FCEE9DFE0FD5F0E9E4CEFD22EDB8
:10026900F8F5F0EE8420D21CFEADF075F008EF2F02
:10027900FFED33FD4007985006D5F0F222C398FDF3
:050289000FD5F0EA2290
:00000001FF
