:100ECC00C100014B0001280001250002470000026F
:100EDC00230000023E0000023600000A2A00000037
:100EEC000000000000000001294101273701440ADD
:100EFC0001261901223C01211C014C46013D000236
:100F0C004200000249000002380000023A000002D0
:060F1C00340000013C005E
:0811E500E4FF1212637F05FE16
:1011ED00EF4E60157DE87C03ED1DAA0470011C4ACD
:0911FD0070F6EF1F70EA1E80E796
:0112060022C5
:03123800E4FDFFD3
:10123B008FC38DC475C78275C50175C65A75C6A592
:02124B00AFC230
:01124D00227E
:101263008BC28FC38DC475C78275C50275C65A7587
:03127300C6A522EB
:101276008FC38DC475C78275C50375C65A75C6A555
:011286002245
:10104000E4FDFF1212767F05FE1211EDAB29E4FDDF
:101050001211E6AB277D011211E5AB447D0212119E
:10106000E5AB267D031211E5AB227D041211E5AB41
:0F107000217D051211E5AB4C7D06E4FF021263F2
:100ABA00121238EFF46007E4FF12123B8F297D010E
:100ACA00E4FF12123BEFF46007E4FF12123B8F2798
:100ADA007D02E4FF12123BEFF46007E4FF12123BBF
:100AEA008F44121238EFF460097D03E4FF12123BBF
:100AFA008F267D01E4FF12123BEFF460097D04E4C6
:100B0A00FF12123B8F227D02E4FF12123BEFF460C8
:100B1A00097D05E4FF12123B8F21E4FDFF12123B0F
:100B2A00EFF460097D06E4FF12123B8F4CE4F59363
:100B3A007594FF7580FFF591F5927590FFF595F51F
:100B4A009675A0FFF5B175B2F875B00FC2B7C2B607
:100B5A00F528F525F523752471438E80758911755D
:0C0B6A008CFF758A5FD28CD2A9D2AF221A
:10128700C3EE64809480400122C3E49FFFE49EFE86
:011297002234
:10122100D3EF9400EE9400400DE4FD0DBDFAFCEF08
:061231001F70ED1E80EAB3
:011237002294
:1005BC00E5905407753E00F53F753F00F53EAFA042
:1005CC00EF253FF53FE4353EF53E5407FEE53F8E03
:1005DC00F01202E2071600000700000106E4000218
:1005EC0006F2000306C8000406D6000606AC000896
:1005FC0006BA000C06900010069E00180684002017
:10060C0006840030067C004006840060066C008086
:10061C00067400C0065C010006640180064C0200F2
:10062C0006540300063C0400064406000000071DA7
:10063C007536FF7537F580527536FF7537F7804A7A
:10064C007536FF7537F980427536FF7537FA803A83
:10065C007536FF7537FB80327536FF7537FC802A8F
:10066C007536FF7537FD80227536FF7537FE801A9B
:10067C0074FFF536F5378012E4F536F537AE3AAF40
:10068C003BFC807C753600753701AE3AAF3B7C0085
:10069C00806E753600753702AE3AAF3B7C008060D9
:1006AC00753600753703AE3AAF3B7C008052753619
:1006BC0000753704AE3AAF3B7C008044753600754C
:1006CC003705AE3AAF3B7C00803675360075370681
:1006DC00AE3AAF3B7C008028753600753707AE3AD2
:1006EC00AF3B7C00801A753600753709AE3AAF3BCC
:1006FC007C00800C75360075370BAE3AAF3B7C0036
:10070C007D0212029E8E3A8F3B228532368533371C
:10071C0022853236853337053BE53B7002053A229C
:10087900E4F518AF37AE36121287C3EF9403EE646E
:10088900809480400EAF21EF3395E0F5458F46AF58
:100899004C800CAF26EF3395E0F5458F46AF22EF3C
:1008A9003395E0F5408F41C3E5379533FFE536953C
:1008B90032FE121287C3EF9409EE648094804006D9
:1008C900853236853337C3E5379533FFE5369532BB
:1008D900FEAC40AD4112028CAA06AB07AC36AD376F
:1008E900AE45AF4612028CEF2BFFEE3AFE7C007D3F
:1008F9000A12029E8E348F35E5352471F524E435CC
:1009090034F523C3E524949EE5236480948040064E
:1009190075230075249ED3E5249453E523648094BC
:10092900805006752300752453E4F518E51825E071
:10093900242CF8E6FE08E6FFE51825E0242AF8A6A7
:100949000608A6070518E518B404E1853632853787
:1009590033AF35AE34121287D3EF9406EE64809428
:10096900805004053C8003E4F53CC3E53C64809475
:100979008A4003753C0AC3E5359423E534648094C1
:10098900804006753400753523D3E53594DDE534AB
:0C0999006480947F50067534FF7535DDD6
:0109A500222F
:100B7600C3E53C64809488400585293D801DAF37D8
:100B8600AE36121287D3EF9402EE6480948050053D
:100B960085273D8006E52724F8F53DAC44E412019F
:100BA600BEE4FBFA79207841120117C004C005C0E3
:100BB60006C007AC34AD35EC1201B9D003D002D073
:100BC60001D00012000E1201F2E53D2FF528C3E513
:100BD6003D9FF525C3E53B944BE53A648094804000
:100BE60005E4F528F525D3E528648094E4400375EB
:100BF6002864C3E528648094805003E4F528D3E58F
:100C060025648094E44003752564C3E525648094D7
:070C1600805003E4F52522E4
:10100000120ABA120FBF120C1D7590FF30972312EF
:10101000072C120C1DA297B350F27F0A7E00121209
:1010200007A297B350E6A297B340FBC297121040B5
:1010300080DA1205BC75A0FF120879120B7680F2D7
:03000B00020E5290
:100E5200C0E0C0D075D008758CFF758A5F054B0560
:100E620048E54870020547D3E54B648094E44003AB
:100E7200754B01D3E5489440E54764809486400869
:100E8200754700754801D200C3E54B6480F8E52838
:100E92006480984004D2B78002C2B7C3E54B648035
:100EA200F8E5256480984004D2B68002C2B6C3E554
:100EB200249548E5476480F8E5236480984004D28D
:0A0EC200B58002C2B5D0D0D0E032F6
:1011C0002A004C5F563A00425F563A00445F4E3A5E
:1011D000004C696E653A0042656E643A00503A0010
:0511E000443A0020006C
:100C1D007BFF7A1179C0E4FDFF12119A7BFF7A11E7
:100C2D0079C2E4FD7F0A12119AAB29E4FD7F4112CE
:100C3D0010EB7BFF7A1179C77D017F0A12119AABF8
:100C4D00277D017F411210EB7BFF7A1179CC7D025C
:100C5D007F0A12119AAB447D027F411210EB7BFF8C
:100C6D007A1179D17D037F0A12119A7BFF7A11795E
:100C7D00D77D037F3712119A7BFF7A1179DD7D04C1
:100C8D00E4FF12119A7BFF7A1179E07D05E4FF12E2
:100C9D00119AAB267D047F141210EBAB217D047FDE
:100CAD00411210EBAB227D057F141210EBAB4C7D86
:060CBD00057F410210EB6F
:1009A6008C198D1AEFB408004003020AB99009BAEF
:1009B600F82828730209D20209F2020A13020AB9B8
:1009C600020A34020A54020A74020A96E51A252912
:1009D600F529E4FD7F41120F237BFF7A1179C0E4EC
:1009E600FDFF12119AAB29E4FD020AB4E51A252788
:1009F600F5277D017F41120F237BFF7A1179C07D98
:100A060001E4FF12119AAB277D01020AB4E51A250B
:100A160044F5447D027F41120F237BFF7A1179C092
:100A26007D02E4FF12119AAB447D02020AB4E51A74
:100A36002526F5267D047F0A120F237BFF7A11797E
:100A4600C07D047F0A12119AAB267D04803EE51A0A
:100A56002521F5217D047F37120F237BFF7A11793B
:100A6600C07D047F3712119AAB217D048040E51AC0
:100A76002522F5227D057F0A120F237BFF7A117945
:100A8600C07D057F0A12119AAB227D057F14802056
:100A9600E51A254CF54C7D057F37120F237BFF7A2F
:100AA6001179C07D057F3712119AAB4C7D057F41C8
:040AB6001210EB220D
:10072C00E4F518A294B3400302083A7F0AFE1212B1
:10073C0007A294B3400302083AA294B340FB7BFF98
:10074C007A1179E3AD55E4FF12119AE555C394077C
:10075C00500FE555B4020605550555800A05558020
:10076C0006E4F555121148E555D3940250107BFF61
:10077C007A1179C0AD55E4FF12119A02083AE55589
:10078C006404701F7D04FF120F237BFF7A1179DD47
:10079C007D04E4FF12119A7BFF7A1179C07D047FEE
:1007AC000A8023E5556405702F7D04FF120F237B0F
:1007BC00FF7A1179DD7D04E4FF12119A7BFF7A1127
:1007CC0079C07D047F3712119AAB267D047F1412F9
:1007DC0010EBAB217D048051E55564067D05701D41
:1007EC00FF120F237BFF7A1179E07D05E4FF1211D4
:1007FC009A7BFF7A1179C07D057F0A801CE4FF1279
:10080C000F237BFF7A1179E07D05E4FF12119A7BAF
:10081C00FF7A1179C07D057F3712119AAB227D05C5
:10082C007F141210EBAB4C7D057F411210EBA2959F
:10083C00B3501A7F0A7E00121207A295B3500EA273
:10084C0095B340FB7D017C00AF551209A6A296B36F
:10085C00501A7F0A7E00121207A296B3500EA2966F
:0C086C00B340FB74FFFDFCAF551209A661
:01087800225D
:1003640089F200FF01F9FF00FC00FF00000704040C
:10037400020102040104070011F6000424E4242409
:10038400FF05060000070201020301010102070044
:100394000000000000000000002F00000000070023
:1003A400070000147F147F1400242A7F2A1200629D
:1003B4006408132300364955225000000503000049
:1003C40000001C224100000041221C000014083ED1
:1003D40008140008083E0808000000A06000000897
:1003E40008080808000060600000002010080402EB
:1003F400003E5149453E0000427F400000426151A9
:100404004946002141454B31001814127F10002742
:1004140045454539003C4A49493000017109050305
:1004240000364949493600064949291E0000363636
:100434000000000056360000000814224100001499
:100444001414141400004122140800020151090676
:1004540000324959513E007C1211127C007F4949F7
:100464004936003E41414122007F4141221C007F28
:1004740049494941007F09090901003E4149497A36
:10048400007F0808087F0000417F410000204041B0
:100494003F01007F08142241007F40404040007F1C
:1004A400020C027F007F0408107F003E4141413E60
:1004B400007F09090906003E4151215E007F0919A8
:1004C40029460046494949310001017F0101003FA5
:1004D4004040403F001F2040201F003F4038403F25
:1004E4000063140814630007087008070061514989
:1004F400454300007F41410000552A552A5500001C
:1005040041417F0000040201020400404040404099
:10051400000001020400002054545478007F484431
:10052400443800384444442000384444487F003868
:100534005454541800087E0901020018A4A4A47C91
:10054400007F080404780000447D4000004080845B
:100554007D00007F102844000000417F4000007CA3
:1005640004180478007C08040478003844444438AF
:1005740000FC242424180018242418FC007C0804FB
:10058400040800485454542000043F444020003CD4
:100594004040207C001C2040201C003C4030403C5B
:1005A400004428102844001CA0A0A07C00446454EB
:0805B4004C4414141414141437
:0E129800E4FFFE0FBF00010EBE01F8BFF4F52B
:0112A6002225
:10120700EF4E60157DE87C03ED1DAA0470011C4AB2
:0912170070F6EF1F70EA1E80E77B
:0112200022AB
:100FBF00C280121298D280C281121298D28112125C
:100FCF0098E4FD7F211210C5E4FD7FB81210C5E42F
:100FDF00FD7F061210C5E4FD7F131210C5E4FD7FDF
:100FEF00201210C5121148E4FD7F0C1210C5C281EA
:010FFF0022CF
:10114800E4FD7F0C1210C5E4FD7F801210C5E4F5A4
:1011580019F51A7D01E4FF1210C5051AE51A700287
:0B1168000519C394F8E519940140E854
:011173002259
:040F23008F1B8D1C77
:100F2700E4FD7F0C1210C5E4FD7F801210C5E51C9F
:100F370024FFFFE434FFFE7C007D5412028CEF2572
:100F47001BF51EEC3EF51DE51C75F054A4FFC3E52B
:100F57001E9FE51D95F050117D01E4FF1210C50598
:090F67001EE51E70E2051D80DE8E
:010F7000225E
:10124E008F1EED4440FFE4FD1210C5E51E4480FFE5
:05125E00E4FD0210C5D3
:021174008F1ECC
:10117600E4F51F75F006E51EA424D4F582E5F034E7
:1011860002F583E582251F1210B9051FE51FC394DA
:031196000640E030
:011199002233
:10119A008B1B8A1C891D12124EAB1BAA1CA91D127D
:1011AA000273FF60101211747401251DF51DE435D8
:0611BA001CF51C80E4227C
:060DD2008F108D118B1241
:100DD80012124EE4F516E516C39513506CE4F51798
:100DE800E51275F002A4FFC3E5179FE5F06480F8EB
:100DF8007480985040E5176512701EE5167008E576
:100E08001104FDAF10800FE51225158516F0A425F5
:100E180010FFE51104FD12124EE514251675F018A1
:100E2800A42464F582E43403F583E58225171210BF
:100E3800B9051780AB0516E51225158516F0A4250A
:090E480010FFAD1112124E808D55
:010E5100227E
:0C10B900F582E43583F583E493FF7D01AC
:1010C500C281ED7004C2828002D282E4FEEF30E775
:1010D50004D2838002C283C284EF25E0FFD2840E4E
:0510E500BE08EAD28103
:0110EA0022E3
:10111A00AE53AF5412029E7C007D0A12029EAF05A6
:02112A00AC0710
:10112C00E4FB75F006ECA424F4F582E5F03403F549
:0B113C0083E5822B1210B90BBB06E705
:011147002285
:1010EB008B1B12124EE51B75F0648475F00A84AFEE
:1010FB00F012112AE51B75F06484E5F075F00A8493
:0F110B00FF12112AE51B75F00A84AFF002112ABA
:100F71008A538B5412124EAE53AF547C277D1012FC
:100F8100029E12112A7C037DE812111A7C007D64F5
:100F910012111AAE53AF547C007D6412029E7E0082
:100FA1007F0ACFCDCFCECCCE12029E12112AAE53E4
:0E0FB100AF547C007D0A12029EAF0502112A89
:100D4F0012124EAF52AE51AD50AC4F1201F27C00A9
:100D5F007D6412111EAF52AE51AD50AC4F1201F265
:100D6F007C007D6412029E7E007F0ACFCDCFCECC59
:100D7F00CE12029E12112AAF52AE51AD50AC4F128D
:100D8F0001F21211217F2E121174E4FFFE7D207CDF
:100D9F0041AB52AA51A950A84F12000E1201F212E4
:100DAF001121E4FFFE7DC87C42AB52AA51A950A885
:100DBF004F12000E1201F27C007D0A12029EAF0547
:030DCF0002112AE4
:10107F008B5612124EE556C4540FFFC3940A5005F7
:10108F00EF24308007E556C4540F2437FF12117434
:10109F00E556540FFFC3940A5005EF24308006E540
:0A10AF0056540F2437FF121174226B
:10000E00EC4D6011E8497017ED33EC3304600DE4EC
:10001E00FCFFFEFD22E933E8330470F802025E12A3
:10002E00022958046009E4CC2481500628500902A4
:10003E000268284003020265C0E0EB4A7044B980B2
:10004E0006D0E0FB020254EF4E701CBD8008EBFFA1
:10005E00EAFEE9FD80EBE98DF0A4FEE5F00200F783
:10006E00E9CDF9EAFEEBFFEF89F0A4FCE5F0CE89CD
:10007E00F0A42EFFE435F0CD89F0A42DFEE435F08A
:10008E008067EF4E7005BD80D780C3EF8BF0A4ACB8
:10009E00F0EE8BF0A42CFCE435F0F8EF8AF0A42CF3
:1000AE00E5F038FCE433CB8DF0A42CFCE5F03BF806
:1000BE00EE8AF0A42CFCE5F038F8E433CF89F0A4F6
:1000CE002CFCE5F038CF3400CE89F0A42FFFE5F0FC
:1000DE003EFEE433C98DF0A42EFEE5F039CD8AF054
:1000EE00A42FFFE5F03EFEE43DFD33D0E0FB5007CC
:1000FE000BBB000F020268EC2CFCEF33FFEE33FE5D
:06010E00ED33FD0202408A
:10011400020268EC5D046005E85904700302025EA3
:10012400120229580460F6EC4860F2EC7004FDFEFB
:10013400FF22C860DB2481C85009C39860025006BE
:100144000202659850CAF582E9294B4A7005AB82D0
:1001540002025475F0007C1A7880C3EF9BEE9AED8E
:1001640099400DC3EF9BFFEE9AFEED99FDE842F036
:10017400DC23ACF0D0E0FFD0E0FED0E0FDAB822089
:10018400E7101BEB60BAEC2CFCEF33FFEE33FEED13
:1001940033FD020240E803F830E705C0F075F000D3
:1001A400EF2FFFEE33FEED33FD40B830E7C280AAF7
:1001B40075F020800E75F010800575F0087D007EC6
:1001C400007F003392D530D5031202D4EC334010B3
:1001D400EF33FFEE33FEED33FDEC33FCD5F0ED22CF
:0E01E400E5F0247EA2D513CC92E7CDCEFF220B
:1001F200EDD2E7CD33EC3392D524814006E4FFFE05
:10020200FDFC22FCE4CFCECDCC24E0501174FF8063
:10021200EDC3CC13CCCD13CDCE13CECF13CF047000
:07022200F030D5DE0202D42A
:10022900E9D2E7C933E833F892D5EDD2E7CD33EC1B
:0702390033FC5002B2D52294
:10024000EC30E7100FBF000C0EBE00080DBD00041F
:100250000BEB6014A2D5EB13FCED92E7FD2274FFCB
:10026000FCFDFEFF22E480F8A2D574FF13FC7D8024
:03027000E480EF38
:03000000020CC32C
:0C0CC300787FE4F6D8FD758156020D0A1A
:10027300BB010689828A83E0225002E722BBFE0289
:09028300E32289828A83E49322BC
:10028C00EF8DF0A4A8F0CF8CF0A428CE8DF0A42E86
:02029C00FE2240
:10029E00C2D5EC30E709B2D5E4C39DFDE49CFCEE7B
:1002AE0030E715B2D5E4C39FFFE49EFE12030FC3E1
:1002BE00E49DFDE49CFC800312030F30D507C3E4DC
:0602CE009FFFE49EFE22EA
:0E02D400C3E49FFFE49EFEE49DFDE49CFC223B
:1002E200D083D082F8E4937012740193700DA3A3AB
:1002F20093F8740193F5828883E473740293B5F0E2
:0D030200067403936860E9A3A3A3A380D849
:100CCF00021000E493A3F8E493A34003F68001F22B
:100CDF0008DFF48029E493A3F85407240CC8C33326
:100CEF00C4540F4420C8834004F456800146F6DFF5
:100CFF00E4800B0102040810204080900ECCE47EAB
:100D0F00019360BCA3FF543F30E509541FFEE493E9
:100D1F00A360010ECF54C025E060A840B8E493A3B0
:100D2F00FAE493A3F8E493A3C8C582C8CAC583CADB
:100D3F00F0A3C8C582C8CAC583CADFE9DEE780BE93
:010F220000CE
:10030F00BC000BBE0029EF8DF084FFADF022E4CCD2
:10031F00F875F008EF2FFFEE33FEEC33FCEE9DEC9B
:10032F00984005FCEE9DFE0FD5F0E9E4CEFD22EDE1
:10033F00F8F5F0EE8420D21CFEADF075F008EF2F2B
:10034F00FFED33FD4007985006D5F0F222C398FD1C
:05035F000FD5F0EA22B9
:00000001FF
