:100EA900C100014B00012800012500024700000292
:100EB900230000023E0000023600000A2A0000005A
:100EC9000000000000000001294101273701440A00
:100ED90001261901223C01211C014C46013D000259
:100EE9004200000249000002380000023A000002F4
:060EF900340000013C0082
:0811C200E4FF1212407F05FE5C
:1011CA00EF4E60157DE87C03ED1DAA0470011C4AF0
:0911DA0070F6EF1F70EA1E80E7B9
:0111E30022E9
:03121500E4FDFFF6
:101218008FC38DC475C78275C50175C65A75C6A5B5
:02122800AFC253
:01122A0022A1
:101240008BC28FC38DC475C78275C50275C65A75AA
:03125000C6A5220E
:101253008FC38DC475C78275C50375C65A75C6A578
:011263002268
:10101D00E4FDFF1212537F05FE1211CAAB29E4FD48
:10102D001211C3AB277D011211C2AB447D02121107
:10103D00C2AB267D031211C2AB227D041211C2ABCD
:0F104D00217D051211C2AB4C7D06E4FF0212405B
:100A9700121215EFF46007E4FF1212188F297D0177
:100AA700E4FF121218EFF46007E4FF1212188F2701
:100AB7007D02E4FF121218EFF46007E4FF12121828
:100AC7008F44121215EFF460097D03E4FF12121828
:100AD7008F267D01E4FF121218EFF460097D04E40C
:100AE700FF1212188F227D02E4FF121218EFF46032
:100AF700097D05E4FF1212188F21E4FDFF12121879
:100B0700EFF460097D06E4FF1212188F4CE4F593A9
:100B17007594FF7580FFF591F5927590FFF595F542
:100B27009675A0FFF5B175B2F875B00FC2B7C2B62A
:100B3700F528F525F52375247B438E807589117576
:0C0B47008CFF758A5FD28CD2A9D2AF223D
:10126400C3EE64809480400122C3E49FFFE49EFEA9
:011274002257
:1011FE00D3EF9400EE9400400DE4FD0DBDFAFCEF2C
:06120E001F70ED1E80EAD6
:0112140022B7
:1005BC00E5A0753E00F53F25E0F53FE53E33F53E01
:1005CC00E5905401253FF53FE4353EF53E5401FEE0
:1005DC00E53F8EF01202E206F3000006DD00010694
:1005EC00C1000206CF000306A5000406B3000606F0
:1005FC008900080697000C066F0010067B00180691
:10060C005F002006670030064F004006570060066A
:10061C003F0080064700C0062F010006370180000E
:10062C000006FA7536FF7537F7804A7536FF753751
:10063C00F980427536FF7537FA803A7536FF753793
:10064C00FB80327536FF7537FC802A7536FF75379F
:10065C00FD80227536FF7537FE801A74FFF536F56E
:10066C00378012E4F536F537AE3AAF3BFC806E7549
:10067C003600753701AE3AAF3B7C008060753600B2
:10068C00753702AE3AAF3B7C008052753600753739
:10069C0003AE3AAF3B7C008044753600753704AE30
:1006AC003AAF3B7C008036753600753705AE3AAFF5
:1006BC003B7C008028753600753706AE3AAF3B7C24
:1006CC0000801A753600753707AE3AAF3B7C008058
:1006DC000C753600753709AE3AAF3B7C007D0212C3
:1006EC00029E8E3A8F3B22853236853337228532F5
:0D06FC0036853337053BE53B7002053A2299
:10085600E4F518AF37AE36121264C3EF9403EE64B4
:10086600809480400EAF21EF3395E0F5458F46AF7B
:100876004C800CAF26EF3395E0F5458F46AF22EF5F
:100886003395E0F5408F41C3E5379533FFE536955F
:1008960032FE121264C3EF9409EE6480948040061F
:1008A600853236853337C3E5379533FFE5369532DE
:1008B600FEAC40AD4112028CAA06AB07AC36AD3792
:1008C600AE45AF4612028CEF2BFFEE3AFE7C007D62
:1008D6000A12029E8E348F35E535247BF524E435E5
:1008E60034F523C3E52494BEE52364809480400652
:1008F6007523007524BED3E5249478E5236480949B
:10090600805006752300752478E4F518E51825E06F
:10091600242CF8E6FE08E6FFE51825E0242AF8A6CA
:100926000608A6070518E518B404E18536328537AA
:1009360033AF35AE34121264D3EF9406EE6480946E
:10094600805004053C8003E4F53CC3E53C64809498
:100956008A4003753C0AC3E5359423E534648094E4
:10096600804006753400753523D3E53594DDE534CE
:0C0976006480947F50067534FF7535DDF9
:010982002252
:100B5300C3E53C64809488400585293D801DAF37FB
:100B6300AE36121264D3EF9402EE64809480500583
:100B730085273D8006E52724F8F53DAC44E41201C2
:100B8300BEE4FBFA79207841120117C004C005C006
:100B930006C007AC34AD35EC1201B9D003D002D096
:100BA30001D00012000E1201F2E53D2FF528C3E536
:100BB3003D9FF525C3E53B941EE53A648094804050
:100BC30005E4F528F525D3E528648094E44003750E
:100BD3002864C3E528648094805003E4F528D3E5B2
:100BE30025648094E44003752564C3E525648094FB
:070BF300805003E4F5252208
:100FDD00120A97120F9C120BFA7590FF309723127D
:100FED000709120BFAA297B350F27F0A7E00121175
:100FFD00E4A297B350E6A297B340FBC29712101D1F
:10100D0080DA1205BC75A0FF120856120B5380F240
:03000B00020E2FB3
:100E2F00C0E0C0D075D008758CFF758A5F054B0583
:100E3F0048E54870020547D3E54B648094E44003CE
:100E4F00754B01D3E5489440E5476480948640088C
:100E5F00754700754801D200C3E54B6480F8E5285B
:100E6F006480984004D2B78002C2B7C3E54B648058
:100E7F00F8E5256480984004D2B68002C2B6C3E577
:100E8F00249548E5476480F8E5236480984004D2B0
:0A0E9F00B58002C2B5D0D0D0E03219
:10119D002A004C5F563A00425F563A00445F4E3A81
:1011AD00004C696E653A0042656E643A00503A0033
:0511BD00443A0020008F
:100BFA007BFF7A11799DE4FDFF1211777BFF7A1151
:100C0A00799FE4FD7F0A121177AB29E4FD7F411237
:100C1A0010C87BFF7A1179A47D017F0A121177AB84
:100C2A00277D017F411210C87BFF7A1179A97D02C5
:100C3A007F0A121177AB447D027F411210C87BFFF5
:100C4A007A1179AE7D037F0A1211777BFF7A1179C7
:100C5A00B47D037F371211777BFF7A1179BA7D044D
:100C6A00E4FF1211777BFF7A1179BD7D05E4FF124B
:100C7A001177AB267D047F141210C8AB217D047F47
:100C8A00411210C8AB227D057F141210C8AB4C7DEF
:060C9A00057F410210C8B5
:100983008C198D1AEFB408004003020A9690099758
:10099300F82828730209AF0209CF0209F0020A9668
:1009A300020A11020A31020A51020A73E51A2529C1
:1009B300F529E4FD7F41120F007BFF7A11799DE455
:1009C300FDFF121177AB29E4FD020A91E51A2527F1
:1009D300F5277D017F41120F007BFF7A11799D7D01
:1009E30001E4FF121177AB277D01020A91E51A2575
:1009F30044F5447D027F41120F007BFF7A11799DFC
:100A03007D02E4FF121177AB447D02020A91E51ADD
:100A13002526F5267D047F0A120F007BFF7A1179C4
:100A23009D7D047F0A121177AB267D04803EE51A73
:100A33002521F5217D047F37120F007BFF7A117981
:100A43009D7D047F37121177AB217D048040E51A29
:100A53002522F5227D057F0A120F007BFF7A11798B
:100A63009D7D057F0A121177AB227D057F148020BF
:100A7300E51A254CF54C7D057F37120F007BFF7A75
:100A830011799D7D057F37121177AB4C7D057F4131
:040A93001210C82253
:10070900E4F518A294B340030208177F0AFE1211F8
:10071900E4A294B34003020817A294B340FB7BFF01
:100729007A1179C0AD55E4FF121177E555C39407E5
:10073900500FE555B4020605550555800A05558043
:1007490006E4F555121125E555D3940250107BFFA7
:100759007A11799DAD55E4FF121177020817E55515
:100769006404701F7D04FF120F007BFF7A1179BAB0
:100779007D04E4FF1211777BFF7A11799D7D047F57
:100789000A8023E5556405702F7D04FF120F007B55
:10079900FF7A1179BA7D04E4FF1211777BFF7A1190
:1007A900799D7D047F37121177AB267D047F141262
:1007B90010C8AB217D048051E55564067D05701D87
:1007C900FF120F007BFF7A1179BD7D05E4FF12113D
:1007D900777BFF7A11799D7D057F0A801CE4FF12E2
:1007E9000F007BFF7A1179BD7D05E4FF1211777B3C
:1007F900FF7A11799D7D057F37121177AB227D052F
:100809007F141210C8AB4C7D057F411210C8A29508
:10081900B3501A7F0A7E001211E4A295B3500EA2BA
:1008290095B340FB7D017C00AF55120983A296B3B5
:10083900501A7F0A7E001211E4A296B3500EA296B6
:0C084900B340FB74FFFDFCAF55120983A7
:010855002280
:1003640089F200FF01F9FF00FC00FF00000704040C
:10037400020102040104070011F6000424E4242409
:10038400FF05060000070201020301010102070044
:100394000000000000000000002F00000000070023
:1003A400070000147F147F1400242A7F2A1200629D
:1003B4006408132300364955225000000503000049
:1003C40000001C224100000041221C000014083ED1
:1003D40008140008083E0808000000A06000000897
:1003E40008080808000060600000002010080402EB
:1003F400003E5149453E0000427F400000426151A9
:100404004946002141454B31001814127F10002742
:1004140045454539003C4A49493000017109050305
:1004240000364949493600064949291E0000363636
:100434000000000056360000000814224100001499
:100444001414141400004122140800020151090676
:1004540000324959513E007C1211127C007F4949F7
:100464004936003E41414122007F4141221C007F28
:1004740049494941007F09090901003E4149497A36
:10048400007F0808087F0000417F410000204041B0
:100494003F01007F08142241007F40404040007F1C
:1004A400020C027F007F0408107F003E4141413E60
:1004B400007F09090906003E4151215E007F0919A8
:1004C40029460046494949310001017F0101003FA5
:1004D4004040403F001F2040201F003F4038403F25
:1004E4000063140814630007087008070061514989
:1004F400454300007F41410000552A552A5500001C
:1005040041417F0000040201020400404040404099
:10051400000001020400002054545478007F484431
:10052400443800384444442000384444487F003868
:100534005454541800087E0901020018A4A4A47C91
:10054400007F080404780000447D4000004080845B
:100554007D00007F102844000000417F4000007CA3
:1005640004180478007C08040478003844444438AF
:1005740000FC242424180018242418FC007C0804FB
:10058400040800485454542000043F444020003CD4
:100594004040207C001C2040201C003C4030403C5B
:1005A400004428102844001CA0A0A07C00446454EB
:0805B4004C4414141414141437
:0E127500E4FFFE0FBF00010EBE01F8BFF4F54E
:011283002248
:1011E400EF4E60157DE87C03ED1DAA0470011C4AD6
:0911F40070F6EF1F70EA1E80E79F
:0111FD0022CF
:100F9C00C280121275D280C281121275D2811212C5
:100FAC0075E4FD7F211210A2E4FD7FB81210A2E4BB
:100FBC00FD7F061210A2E4FD7F131210A2E4FD7F48
:100FCC00201210A2121125E4FD7F0C1210A2C28176
:010FDC0022F2
:10112500E4FD7F0C1210A2E4FD7F801210A2E4F50D
:1011350019F51A7D01E4FF1210A2051AE51A7002CD
:0B1145000519C394F8E519940140E877
:01115000227C
:040F00008F1B8D1C9A
:100F0400E4FD7F0C1210A2E4FD7F801210A2E51C08
:100F140024FFFFE434FFFE7C007D5412028CEF2595
:100F24001BF51EEC3EF51DE51C75F054A4FFC3E54E
:100F34001E9FE51D95F050117D01E4FF1210A205DE
:090F44001EE51E70E2051D80DEB1
:010F4D002281
:10122B008F1EED4440FFE4FD1210A2E51E4480FF2B
:05123B00E4FD0210A219
:021151008F1EEF
:10115300E4F51F75F006E51EA424D4F582E5F0340A
:1011630002F583E582251F121096051FE51FC39420
:031173000640E053
:011176002256
:101177008B1B8A1C891D12122BAB1BAA1CA91D12C3
:101187000273FF60101211517401251DF51DE4351E
:061197001CF51C80E4229F
:060DAF008F108D118B1264
:100DB50012122BE4F516E516C39513506CE4F517DE
:100DC500E51275F002A4FFC3E5179FE5F06480F80E
:100DD5007480985040E5176512701EE5167008E599
:100DE5001104FDAF10800FE51225158516F0A42519
:100DF50010FFE51104FD12122BE514251675F018E8
:100E0500A42464F582E43403F583E58225171210E2
:100E150096051780AB0516E51225158516F0A42550
:090E250010FFAD1112122B808D9B
:010E2E0022A1
:0C109600F582E43583F583E493FF7D01CF
:1010A200C281ED7004C2828002D282E4FEEF30E798
:1010B20004D2838002C283C284EF25E0FFD2840E71
:0510C200BE08EAD28126
:0110C7002206
:1010F700AE53AF5412029E7C007D0A12029EAF05CA
:02110700AC0733
:10110900E4FB75F006ECA424F4F582E5F03403F56C
:0B11190083E5822B1210960BBB06E74B
:0111240022A8
:1010C8008B1B12122BE51B75F0648475F00A84AF34
:1010D800F0121107E51B75F06484E5F075F00A84D9
:0F10E800FF121107E51B75F00A84AFF002110724
:100F4E008A538B5412122BAE53AF547C277D101242
:100F5E00029E1211077C037DE81210F77C007D645F
:100F6E001210F7AE53AF547C007D6412029E7E00C9
:100F7E007F0ACFCDCFCECCCE12029E121107AE532A
:0E0F8E00AF547C007D0A12029EAF05021107CF
:100D2C0012122BAF52AE51AD50AC4F1201F27C00EF
:100D3C007D641210FBAF52AE51AD50AC4F1201F2AC
:100D4C007C007D6412029E7E007F0ACFCDCFCECC7C
:100D5C00CE12029E121107AF52AE51AD50AC4F12D3
:100D6C0001F21210FE7F2E121151E4FFFE7D207C49
:100D7C0041AB52AA51A950A84F12000E1201F21207
:100D8C0010FEE4FFFE7DC87C42AB52AA51A950A8CC
:100D9C004F12000E1201F27C007D0A12029EAF056A
:030DAC000211072A
:10105C008B5612122BE556C4540FFFC3940A50053D
:10106C00EF24308007E556C4540F2437FF1211517A
:10107C00E556540FFFC3940A5005EF24308006E563
:0A108C0056540F2437FF12115122B1
:10000E00EC4D6011E8497017ED33EC3304600DE4EC
:10001E00FCFFFEFD22E933E8330470F802025E12A3
:10002E00022958046009E4CC2481500628500902A4
:10003E000268284003020265C0E0EB4A7044B980B2
:10004E0006D0E0FB020254EF4E701CBD8008EBFFA1
:10005E00EAFEE9FD80EBE98DF0A4FEE5F00200F783
:10006E00E9CDF9EAFEEBFFEF89F0A4FCE5F0CE89CD
:10007E00F0A42EFFE435F0CD89F0A42DFEE435F08A
:10008E008067EF4E7005BD80D780C3EF8BF0A4ACB8
:10009E00F0EE8BF0A42CFCE435F0F8EF8AF0A42CF3
:1000AE00E5F038FCE433CB8DF0A42CFCE5F03BF806
:1000BE00EE8AF0A42CFCE5F038F8E433CF89F0A4F6
:1000CE002CFCE5F038CF3400CE89F0A42FFFE5F0FC
:1000DE003EFEE433C98DF0A42EFEE5F039CD8AF054
:1000EE00A42FFFE5F03EFEE43DFD33D0E0FB5007CC
:1000FE000BBB000F020268EC2CFCEF33FFEE33FE5D
:06010E00ED33FD0202408A
:10011400020268EC5D046005E85904700302025EA3
:10012400120229580460F6EC4860F2EC7004FDFEFB
:10013400FF22C860DB2481C85009C39860025006BE
:100144000202659850CAF582E9294B4A7005AB82D0
:1001540002025475F0007C1A7880C3EF9BEE9AED8E
:1001640099400DC3EF9BFFEE9AFEED99FDE842F036
:10017400DC23ACF0D0E0FFD0E0FED0E0FDAB822089
:10018400E7101BEB60BAEC2CFCEF33FFEE33FEED13
:1001940033FD020240E803F830E705C0F075F000D3
:1001A400EF2FFFEE33FEED33FD40B830E7C280AAF7
:1001B40075F020800E75F010800575F0087D007EC6
:1001C400007F003392D530D5031202D4EC334010B3
:1001D400EF33FFEE33FEED33FDEC33FCD5F0ED22CF
:0E01E400E5F0247EA2D513CC92E7CDCEFF220B
:1001F200EDD2E7CD33EC3392D524814006E4FFFE05
:10020200FDFC22FCE4CFCECDCC24E0501174FF8063
:10021200EDC3CC13CCCD13CDCE13CECF13CF047000
:07022200F030D5DE0202D42A
:10022900E9D2E7C933E833F892D5EDD2E7CD33EC1B
:0702390033FC5002B2D52294
:10024000EC30E7100FBF000C0EBE00080DBD00041F
:100250000BEB6014A2D5EB13FCED92E7FD2274FFCB
:10026000FCFDFEFF22E480F8A2D574FF13FC7D8024
:03027000E480EF38
:03000000020CA04F
:0C0CA000787FE4F6D8FD758156020CE761
:10027300BB010689828A83E0225002E722BBFE0289
:09028300E32289828A83E49322BC
:10028C00EF8DF0A4A8F0CF8CF0A428CE8DF0A42E86
:02029C00FE2240
:10029E00C2D5EC30E709B2D5E4C39DFDE49CFCEE7B
:1002AE0030E715B2D5E4C39FFFE49EFE12030FC3E1
:1002BE00E49DFDE49CFC800312030F30D507C3E4DC
:0602CE009FFFE49EFE22EA
:0E02D400C3E49FFFE49EFEE49DFDE49CFC223B
:1002E200D083D082F8E4937012740193700DA3A3AB
:1002F20093F8740193F5828883E473740293B5F0E2
:0D030200067403936860E9A3A3A3A380D849
:100CAC00020FDDE493A3F8E493A34003F68001F272
:100CBC0008DFF48029E493A3F85407240CC8C33349
:100CCC00C4540F4420C8834004F456800146F6DF18
:100CDC00E4800B0102040810204080900EA9E47EF1
:100CEC00019360BCA3FF543F30E509541FFEE4930D
:100CFC00A360010ECF54C025E060A840B8E493A3D4
:100D0C00FAE493A3F8E493A3C8C582C8CAC583CAFE
:100D1C00F0A3C8C582C8CAC583CADFE9DEE780BEB6
:010EFF0000F2
:10030F00BC000BBE0029EF8DF084FFADF022E4CCD2
:10031F00F875F008EF2FFFEE33FEEC33FCEE9DEC9B
:10032F00984005FCEE9DFE0FD5F0E9E4CEFD22EDE1
:10033F00F8F5F0EE8420D21CFEADF075F008EF2F2B
:10034F00FFED33FD4007985006D5F0F222C398FD1C
:05035F000FD5F0EA22B9
:00000001FF
