:100AF600C100014700012600012500024300000253
:100B0600230000012287023D0000023300000A276D
:100B16000000000000000000000001421C013F37F9
:100B2600012150024000000245000002350000028B
:100B360037000002310000023B00000239000002CB
:030B460048000064
:1009A500E4FDFF120E76EFF46008E4FDFF120E760B
:1009B5008F427D01E4FF120E76EFF460097D01E4BC
:1009C500FF120E768F3F7D02E4FF120E76EFF46084
:1009D500097D02E4FF120E768F22E4F5937594FFEC
:1009E5007580FFF591F5927590FFF595F59675A0D3
:1009F500FFF5B175B2F075B00FC2B7C2B675265026
:100A0500752550F523852224438E80758911758CB3
:0B0A1500FF758A83D28CD2A9D2AF22D9
:100E9C00C3EE64809480400122C3E49FFFE49EFE75
:010EAC002223
:1004E600E5A0753D00F53E25E0F53EE53D33F53DDD
:1004F600E5905480253EF53EE4353DF53D5401FE3C
:10050600E53E8EF012020C061D00000607000105EE
:10051600EB000205F9000305CF000405DD00060522
:10052600B3000805C1000C0599001005A5001805C3
:10053600890020059100300579004005810060059D
:10054600690080057100C005590100056101800040
:100556000006247533FF7534F4804A7533FF75340D
:10056600F580427533FF7534F7803A7533FF75347D
:10057600F980327533FF7534FB802A7533FF753485
:10058600FD80227533FF7534FE801A74FFF533F54E
:10059600348012E4F533F534AE39AF3AFC806E752B
:1005A6003300753401AE39AF3A7C00806075330094
:1005B600753402AE39AF3A7C00805275330075341B
:1005C60003AE39AF3A7C008044753300753405AE0E
:1005D60039AF3A7C008036753300753407AE39AFD3
:1005E6003A7C008028753300753409AE39AF3A7C01
:1005F60000801A75330075340BAE39AF3A7C008033
:100606000C75330075340CAE39AF3A7C007D02129E
:1006160001C88E398F3A22852F3385303422852FB3
:0D06260033853034053AE53A70020539227B
:1006ED00E4F54AC3E5349530FFE533952FFE120E40
:1006FD009CC3EF940BEE648094804006852F338568
:10070D003034C3E5349530FFE533952FFEAD3F7C96
:10071D00001201B6AA06AB07AF427E00AC33AD3472
:10072D001201B6EF2BFFEE3AFE7C007D0A1201C8D6
:10073D007C00EF2522F524EC3EF523C3E524942817
:10074D00E523648094805006752300752428D3E535
:10075D002494C8E523648094804006752300752495
:10076D00C8E4F54AE54A25E02429F8E6FE08E6FF47
:10077D00E54A25E02427F8A60608A607054AE54A16
:09078D00B404E185332F853430FA
:010796002240
:100BE800852126852125C3E53A941EE5396480943C
:100BF800804005E4F526F525D3E526648094E44095
:100C080003752664C3E526648094805003E4F526C2
:100C1800D3E525648094E44003752564C3E5256421
:090C28008094805003E4F52522BC
:100CAC00E4FDFF120EAD7F057E00120E47AB42E451
:100CBC00FDFF120E897F057E00120E47AB3F7D01B2
:100CCC00E4FF120E897F057E00120E47AB227D02D7
:050CDC00E4FF020E8997
:100E11001209A5120C31120A927590FF1204E61202
:0C0E210006ED120BE83000FDC20080F06E
:03000300020ECD1D
:0D0ECD00C0E00536E53670020535D0E03294
:03001300020EDA00
:0D0EDA00C0E00538E53870020537D0E03281
:03000B00020633B7
:10063300C0E0C0F0C0D075D008758CFF758A830503
:10064300470544E54470020543D3E547648094E4D9
:100653004003754701D3E54494F2E54364809483F2
:100663004010754300754401D2000541E541700215
:100673000540C3E5476480F8E5266480984004D2CA
:10068300B78002C2B7C3E5476480F8E52564809864
:100693004004D2B68002C2B6C3E5249544E5436460
:1006A30080F8E5236480984004D2B58002C2B5C3C4
:1006B300E5419405E540648094804027E53625387C
:1006C300FFE5353537FE7C007D021201C88E458F6C
:1006D300467535007536007537007538007540006E
:0A06E300754100D0D0D0F0D0E03215
:100D9C002A00736572766F5F503A00736572766FD6
:100DAC005F443A00736572766F5F6D6964006672BA
:090DBC00657175656E740020007C
:100A92007BFF7A0D799CE4FDFF120DEB7BFF7A0D53
:100AA200799EE4FD7F0A120DEBAB42E4FD7F411219
:100AB2000D137BFF7A0D79A77D017F0A120DEBAB37
:100AC2003F7D017F41120D137BFF7A0D79B07D02CC
:100AD2007F0A120DEBAB227D027F41120D137BFFC9
:100AE2007A0D79BA7D057F0A120DEBAB467D057F43
:040AF20041020D139D
:100A20008C1E8D1FEF14602614604324027062E553
:100A30001F2542F542E4FD7F41120B4C7BFF7A0DEE
:100A4000799CE4FDFF120DEBAB42E4FD803EE51F17
:100A5000253FF53F7D017F41120B4C7BFF7A0D79DD
:100A60009C7D01E4FF120DEBAB3F7D01801EE51F75
:100A70002522F5227D027F41120B4C7BFF7A0D79F6
:100A80009C7D02E4FF120DEBAB227D027F41120D33
:020A900013222F
:10092600E4F555A290B350387F08FE120E2DA29022
:10093600B3502DA290B340FB7BFF7A0D79C3AD5621
:10094600E4FF120DEBE556C39402500405568003EE
:10095600E4F5567BFF7A0D799CAD56E4FF120DEB5C
:10096600A291B3501A7F087E00120E2DA291B350A9
:100976000EA291B340FB7D017C00AF56120A20A265
:1009860092B3501A7F087E00120E2DA292B3500E1B
:0E099600A292B340FB74FFFDFCAF56120A2084
:0109A4002230
:10028E0089F200FF01F9FF00FC00FF0000070404E3
:10029E00020102040104070011F6000424E42424E0
:1002AE00FF0506000007020102030101010207001B
:1002BE000000000000000000002F000000000700FA
:1002CE00070000147F147F1400242A7F2A12006274
:1002DE006408132300364955225000000503000020
:1002EE0000001C224100000041221C000014083EA8
:1002FE0008140008083E0808000000A0600000086E
:10030E0008080808000060600000002010080402C1
:10031E00003E5149453E0000427F4000004261517F
:10032E004946002141454B31001814127F10002719
:10033E0045454539003C4A494930000171090503DC
:10034E0000364949493600064949291E000036360D
:10035E000000000056360000000814224100001470
:10036E00141414140000412214080002015109064D
:10037E0000324959513E007C1211127C007F4949CE
:10038E004936003E41414122007F4141221C007FFF
:10039E0049494941007F09090901003E4149497A0D
:1003AE00007F0808087F0000417F41000020404187
:1003BE003F01007F08142241007F40404040007FF3
:1003CE00020C027F007F0408107F003E4141413E37
:1003DE00007F09090906003E4151215E007F09197F
:1003EE0029460046494949310001017F0101003F7C
:1003FE004040403F001F2040201F003F4038403FFC
:10040E00006314081463000708700807006151495F
:10041E00454300007F41410000552A552A550000F2
:10042E0041417F0000040201020400404040404070
:10043E00000001020400002054545478007F484408
:10044E00443800384444442000384444487F00383F
:10045E005454541800087E0901020018A4A4A47C68
:10046E00007F080404780000447D40000040808432
:10047E007D00007F102844000000417F4000007C7A
:10048E0004180478007C0804047800384444443886
:10049E0000FC242424180018242418FC007C0804D2
:1004AE00040800485454542000043F444020003CAB
:1004BE004040207C001C2040201C003C4030403C32
:1004CE00004428102844001CA0A0A07C00446454C2
:0804DE004C441414141414140E
:0E0EBE00E4FFFE0FBF00010EBE01F8BFF4F509
:010ECC002203
:100E2D00EF4E60157DE87C03ED1DAA0470011C4A90
:090E3D0070F6EF1F70EA1E80E759
:010E46002289
:100C3100C280120EBED280C281120EBED281120EAD
:100C4100BEE4FD7F21120CEDE4FD7FB8120CEDE452
:100C5100FD7F06120CEDE4FD7F13120CEDE4FD7F28
:100C610020120CED120D70E4FD7F0C120CEDC2810F
:010C71002260
:100D7000E4FD7F0C120CEDE4FD7F80120CEDE4F538
:100D80004AF54B7D01E4FF120CED054BE54B70027B
:0B0D9000054AC394F8E54A940140E8CE
:010D9B002235
:040B4C008F4F8D50EA
:100B5000E4FD7F0C120CEDE4FD7F80120CEDE550FE
:100B600024FFFFE434FFFE7C007D541201B6EF2524
:100B70004FF552EC3EF551E55075F054A4FFC3E536
:100B8000529FE55195F050117D01E4FF120CED05E7
:090B900052E55270E2055180DECD
:010B99002239
:100E61008F4DED4440FFE4FD120CEDE54D4480FF54
:050E7100E4FD020CEDA0
:020DC5008F4D50
:100DC700E4F54E75F006E54DA424FEF582E5F03412
:100DD70001F583E582254E120CE1054EE54EC394DD
:030DE7000640E0E3
:010DEA0022E6
:100DEB008B4A8A4B894C120E61AB4AAA4BA94C1207
:100DFB00019DFF6010120DC57401254CF54CE435B7
:060E0B004BF54B80E422D0
:0608A6008F108D118B1272
:1008AC00120E61E4F516E516C39513506CE4F517BA
:1008BC00E51275F002A4FFC3E5179FE5F06480F81C
:1008CC007480985040E5176512701EE5167008E5A7
:1008DC001104FDAF10800FE51225158516F0A42527
:1008EC0010FFE51104FD120E61E514251675F018C4
:1008FC00A4248EF582E43402F583E5822517120CCC
:10090C00E1051780AB0516E51225158516F0A42513
:09091C0010FFAD11120E61808D77
:0109250022AF
:0C0CE100F582E43583F583E493FF7D0188
:100CED00C281ED7004C2828002D282E4FEEF30E751
:100CFD0004D2838002C283C284EF25E0FFD2840E2A
:050D0D00BE08EAD281DE
:010D120022BE
:100D4200AE53AF541201C87C007D0A1201C8AF0530
:020D5200AC07EC
:100D5400E4FB75F006ECA4241EF582E5F03403F5FB
:0B0D640083E5822B120CE10BBB06E7BD
:010D6F002261
:100D13008B4A120E61E54A75F0648475F00A84AF5C
:100D2300F0120D52E54A75F06484E5F075F00A841B
:0F0D3300FF120D52E54A75F00A84AFF0020D521F
:100B9A008A538B54120E61AE53AF547C277D1012C8
:100BAA0001C8120D527C037DE8120D427C007D645F
:100BBA00120D42AE53AF547C007D641201C87E0010
:100BCA007F0ACFCDCFCECCCE1201C8120D52AE5372
:0E0BDA00AF547C007D0A1201C8AF05020D5217
:10082300120E61AF1DAE1CAD1BAC1A12011C7C0075
:100833007D64120D46AF1DAE1CAD1BAC1A12011C1C
:100843007C007D641201C87E007F0ACFCDCFCECC61
:10085300CE1201C8120D52AF1DAE1CAD1BAC1A1245
:10086300011C120D497F2E120DC5E4FFFE7D207C75
:1008730041AB1DAA1CA91BA81A12001612011C12B7
:100883000D49E4FFFE7DC87C42AB1DAA1CA91BA831
:100893001A12001612011C7C007D0A1201C8AF0552
:0308A300020D52F1
:100C72008B57120E61E557C4540FFFC3940A5005F7
:100C8200EF24308007E557C4540F2437FF120DC5F7
:100C9200E557540FFFC3940A5005EF24308006E550
:0A0CA20057540F2437FF120DC5222E
:020B4900C101E8
:100E4700EF4E60157DE87C03ED1DAA0470011C4A76
:090E570070F6EF1F70EA1E80E73F
:010E6000226F
:100E76008FC38DC475C78275C50175C65A75C6A55B
:020E8600AFC2F9
:010E88002247
:100E89008BC28FC38DC475C78275C50275C65A7565
:030E9900C6A522C9
:100EAD008FC38DC475C78275C50375C65A75C6A522
:010EBD002212
:10001600EC4D6011E8497017ED33EC3304600DE4E4
:10002600FCFFFEFD22E933E8330470F80201881272
:10003600015358046009E4CC248150062850090273
:10004600019228400302018FC0E0EB4A7044B98058
:1000560006D0E0FB02017EEF4E701CBD8008EBFF70
:10006600EAFEE9FD80EBE98DF0A4FEE5F00200FF73
:10007600E9CDF9EAFEEBFFEF89F0A4FCE5F0CE89C5
:10008600F0A42EFFE435F0CD89F0A42DFEE435F082
:100096008067EF4E7005BD80D780C3EF8BF0A4ACB0
:1000A600F0EE8BF0A42CFCE435F0F8EF8AF0A42CEB
:1000B600E5F038FCE433CB8DF0A42CFCE5F03BF8FE
:1000C600EE8AF0A42CFCE5F038F8E433CF89F0A4EE
:1000D6002CFCE5F038CF3400CE89F0A42FFFE5F0F4
:1000E6003EFEE433C98DF0A42EFEE5F039CD8AF04C
:1000F600A42FFFE5F03EFEE43DFD33D0E0FB5007C4
:100106000BBB000F020192EC2CFCEF33FFEE33FE2B
:06011600ED33FD02016A59
:10011C00EDD2E7CD33EC3392D524814006E4FFFEDB
:10012C00FDFC22FCE4CFCECDCC24E0501174FF803A
:10013C00EDC3CC13CCCD13CDCE13CECF13CF0470D7
:07014C00F030D5DE0201FED8
:10015300E9D2E7C933E833F892D5EDD2E7CD33ECF2
:0701630033FC5002B2D5226B
:10016A00EC30E7100FBF000C0EBE00080DBD0004F6
:10017A000BEB6014A2D5EB13FCED92E7FD2274FFA2
:10018A00FCFDFEFF22E480F8A2D574FF13FC7D80FB
:03019A00E480EF0F
:030000000207975D
:0C079700787FE4F6D8FD7581570207DE7C
:10019D00BB010689828A83E0225002E722BBFE0260
:0901AD00E32289828A83E4932293
:1001B600EF8DF0A4A8F0CF8CF0A428CE8DF0A42E5D
:0201C600FE2217
:1001C800C2D5EC30E709B2D5E4C39DFDE49CFCEE52
:1001D80030E715B2D5E4C39FFFE49EFE120239C38F
:1001E800E49DFDE49CFC800312023930D507C3E48A
:0601F8009FFFE49EFE22C1
:0E01FE00C3E49FFFE49EFEE49DFDE49CFC2212
:10020C00D083D082F8E4937012740193700DA3A381
:10021C0093F8740193F5828883E473740293B5F0B8
:0D022C00067403936860E9A3A3A3A380D820
:1007A300020E11E493A3F8E493A34003F68001F24D
:1007B30008DFF48029E493A3F85407240CC8C33357
:1007C300C4540F4420C8834004F456800146F6DF26
:1007D300E4800B0102040810204080900AF6E47EB6
:1007E300019360BCA3FF543F30E509541FFEE4931B
:1007F300A360010ECF54C025E060A840B8E493A3E2
:10080300FAE493A3F8E493A3C8C582C8CAC583CA0C
:10081300F0A3C8C582C8CAC583CADFE9DEE780BEC4
:010B4B0000A9
:10023900BC000BBE0029EF8DF084FFADF022E4CCA9
:10024900F875F008EF2FFFEE33FEEC33FCEE9DEC72
:10025900984005FCEE9DFE0FD5F0E9E4CEFD22EDB8
:10026900F8F5F0EE8420D21CFEADF075F008EF2F02
:10027900FFED33FD4007985006D5F0F222C398FDF3
:050289000FD5F0EA2290
:00000001FF
